:100000000C942A000C94D5020C94FE020C94470028
:100010000C9427030C9450030C9479030C94A203C2
:100020000C94CB030C94F4030C941D040C94460420
:100030000C9447000C9447000C9447000C94470024
:100040000C9447000C9447000C9447000C94470014
:100050000C94470011241FBECFE5D8E0DEBFCDBF12
:1000600010E0A0E6B0E0EAE2F9E002C005900D92EF
:10007000AE37B107D9F720E0AEE7B0E001C01D927E
:10008000A639B207E1F70E946F040C9493040C9414
:100090000000CF9380E88093780080919400909145
:1000A00095000E94DD00C82F89E690E090939500AE
:1000B000809394000E94B000C82B0E940901C82BB5
:1000C0000E9424018C2BCF910895CF938DE48093CF
:1000D000780080919400909195000E94DD00C82FD7
:1000E00086E690E090939500809394000E94B00083
:1000F000C82B0E940901C82B0E9424018C2BCF9190
:100100000895CF9380919400909195000E94DD0016
:10011000C82F80E690E090939500809394000E9411
:10012000B000C82B0E941801C82B0E9424018C2B00
:10013000CF910895CF9380919400909195000E9463
:10014000DD00C82F83E690E09093950080939400A3
:100150000E94B000C82B0E9430018C2BCF910895D3
:100160000F931F93CF93DF931F92CDB7DEB7FC01A0
:1001700080818430C8F491819830C0F48F018370FD
:100180009770990F990F982B9064998361E0CE0135
:1001900001960E94ED01811105C082E0F801828381
:1001A00080E005C082E003C081E001C081E00F90E3
:1001B000DF91CF911F910F9108950F931F93CF93CC
:1001C000DF931F92CDB7DEB7FC0180818430C0F48D
:1001D00091819830B8F48F0183709770990F990FBF
:1001E000982B998360E0CE0101960E94ED01811168
:1001F00005C081E0F801828380E005C082E003C091
:1002000081E001C081E00F90DF91CF911F910F91AC
:100210000895CF9361E08CE790E00E94ED01C82F34
:1002200060E08DE790E00E94ED018C2BCF91089566
:1002300060E08CE790E00E94ED0161E08DE790E0E6
:100240000E94ED0180E0089561E08AE790E00E945D
:10025000ED0160E08BE790E00E94ED0180E0089501
:1002600061E08CE790E00E94ED0161E08DE790E0B5
:100270000E94ED0161E08AE790E00E94ED0161E0FB
:100280008BE790E00E94ED0180E00895009709F46B
:10029000A0C0FC01208122230CF49DC0322F3370BA
:1002A000323009F44CC008F06FC0313019F125FF2D
:1002B00010C03AB326952695277081E090E002C0E1
:1002C000880F991F2A95E2F7809583238ABB80E0E7
:1002D00008953AB3FC01208126952695277081E088
:1002E00090E002C0880F991F2A95E2F7832B8ABB02
:1002F00080E0089525FF12C037B3FC0120812695C8
:100300002695277081E090E002C0880F991F2A95FA
:10031000E2F78095832387BB80E0089537B3FC0123
:10032000208126952695277081E090E002C0880FF5
:10033000991F2A95E2F7832B87BB80E0089525FF5C
:1003400012C034B3FC01208126952695277081E0E8
:1003500090E002C0880F991F2A95E2F780958323C9
:1003600084BB80E0089534B3FC0120812695269556
:10037000277081E090E002C0880F991F2A95E2F76C
:10038000832B84BB80E0089525FF12C031B3FC01AC
:10039000208126952695277081E090E002C0880F85
:1003A000991F2A95E2F78095832381BB80E0089509
:1003B00031B3FC01208126952695277081E090E0DD
:1003C00002C0880F991F2A95E2F7832B81BB80E03A
:1003D000089582E0089582E00895009709F4D9C055
:1003E000DC012C9122230CF4D6C0617023702230E2
:1003F00009F469C008F09AC0213091F14AB32C91F8
:10040000269526952770E22F50E0DA0102C0B595B7
:10041000A7952A95E2F7A0FDC0C0611111C04BB3AA
:1004200021E030E002C0220F331FEA95E2F7209569
:1004300024232BBBFC0120812F7B208380E00895A7
:100440004BB321E030E002C0220F331FEA95E2F700
:10045000242B2BBBDC012C9120642C9380E008958D
:1004600047B3FC012081269526952770E22F50E0A6
:10047000DA0102C0B595A7952A95E2F7A0FD8FC0D5
:10048000611111C048B321E030E002C0220F331FD8
:10049000EA95E2F72095242328BBFC0120812F7BDD
:1004A000208380E0089548B321E030E002C0220FAD
:1004B000331FEA95E2F7242B28BBDC012C91206442
:1004C0002C9380E0089544B3FC0120812695269565
:1004D0002770E22F50E0DA0102C0B595A7952A9562
:1004E000E2F7A0FD5EC0611111C045B321E030E02C
:1004F00002C0220F331FEA95E2F72095242325BB83
:10050000FC0120812F7B208380E0089545B321E00A
:1005100030E002C0220F331FEA95E2F7242B25BBFF
:10052000DC012C9120642C9380E0089541B3FC0100
:100530002081269526952770E22F50E0DA0102C02F
:10054000B595A7952A95E2F7A0FD2DC0611111C0C0
:1005500042B321E030E002C0220F331FEA95E2F7F8
:100560002095242322BBFC0120812F7B208380E067
:10057000089542B321E030E002C0220F331FEA9514
:10058000E2F7242B22BBDC012C9120642C9380E029
:10059000089582E0089582E0089581E0089581E061
:1005A000089581E0089581E008951F920F920FB69B
:1005B0000F9211242F933F934F935F936F937F93E9
:1005C0008F939F93AF93BF93EF93FF93E09182003C
:1005D000F0918300309709F00995FF91EF91BF9159
:1005E000AF919F918F917F916F915F914F913F91CB
:1005F0002F910F900FBE0F901F9018951F920F9282
:100600000FB60F9211242F933F934F935F936F93E5
:100610007F938F939F93AF93BF93EF93FF93E0915B
:100620008000F0918100309709F00995FF91EF91DA
:10063000BF91AF919F918F917F916F915F914F91FA
:100640003F912F910F900FBE0F901F9018951F9202
:100650000F920FB60F9211242F933F934F935F93F6
:100660006F937F938F939F93AF93BF93EF93FF937A
:10067000E0918400F0918500309709F00995FF9191
:10068000EF91BF91AF919F918F917F916F915F910A
:100690004F913F912F910F900FBE0F901F90189583
:1006A0001F920F920FB60F9211242F933F934F93E7
:1006B0005F936F937F938F939F93AF93BF93EF93CA
:1006C000FF93E0918600F0918700309709F009953B
:1006D000FF91EF91BF91AF919F918F917F916F911A
:1006E0005F914F913F912F910F900FBE0F901F90F0
:1006F00018951F920F920FB60F9211242F933F93CC
:100700004F935F936F937F938F939F93AF93BF9319
:10071000EF93FF93E0918800F0918900309709F002
:100720000995FF91EF91BF91AF919F918F917F912B
:100730006F915F914F913F912F910F900FBE0F904E
:100740001F9018951F920F920FB60F9211242F939E
:100750003F934F935F936F937F938F939F93AF9349
:10076000BF93EF93FF93E0918A00F0918B00309755
:1007700009F00995FF91EF91BF91AF919F918F91F2
:100780007F916F915F914F913F912F910F900FBE8D
:100790000F901F9018951F920F920FB60F92112471
:1007A0002F933F934F935F936F937F938F939F9379
:1007B000AF93BF93EF93FF93E0918C00F0918D0086
:1007C000309709F00995FF91EF91BF91AF919F91FB
:1007D0008F917F916F915F914F913F912F910F90EA
:1007E0000FBE0F901F9018951F920F920FB60F9289
:1007F00011242F933F934F935F936F937F938F9326
:100800009F93AF93BF93EF93FF93E0918E00F0918E
:100810008F00309709F00995FF91EF91BF91AF914B
:100820009F918F917F916F915F914F913F912F9108
:100830000F900FBE0F901F9018951F920F920FB63A
:100840000F9211242F933F934F935F936F937F9356
:100850008F939F93AF93BF93EF93FF93E09190009B
:10086000F0919100309709F00995FF91EF91BF91B8
:10087000AF919F918F917F916F915F914F913F9138
:100880002F910F900FBE0F901F9018951F920F92EF
:100890000FB60F9211242F933F934F935F936F9353
:1008A0007F938F939F93AF93BF93EF93FF93E091C9
:1008B0009200F0919300309709F00995FF91EF9124
:1008C000BF91AF919F918F917F916F915F914F9168
:1008D0003F912F910F900FBE0F901F90189582E0BF
:1008E00090E00E94460161E082E090E00E94ED010C
:1008F000809179008111FCCF80917E00813081F060
:1009000080917F0090E0FC01EE0FFF1F8E0F9F1F74
:10091000FC01E459FF4F0190F081E02D0995E8CFEB
:0A0920000E949A00E5CFF894FFCF83
:10092A0001030001020001010001000049000681E3
:0E093A0000026500048100028001484C40402C
:00000001FF
