S01700003457442D4361722D537072696E74732E73726563DB
S11300000C942A000C94A3040C94CC040C94470084
S11300100C949D050C94C6050C94EF050C941806DD
S11300200C9441060C946A060C9493060C94BC063A
S11300300C9447000C9447000C9447000C94470020
S11300400C9447000C9447000C9447000C94470010
S11300500C94470011241FBECFE5D8E0DEBFCDBF0E
S113006010E0A0E6B0E0E8E0FEE002C005900D92EA
S1130070A838B107D9F720E0A8E8B0E001C01D9284
S1130080A43AB207E1F70E94E5060C9402070C9427
S1130090000061E08BED9BE00E947405809182007A
S11300A081112CC0209189002F5F209389008091B9
S11300B08D0090E0FC01EE0FFF1FE80FF91FEB58D5
S11300C0FF4F428150E0022E000C330B42175307BE
S11300D091F42FEF209389000196837090789923EF
S11300E024F401978C6F9F6F019680938D0081E0BB
S11300F080938C00089510928C000895823029F426
S11301008FEF809389001092820008958091880077
S1130110811114C061E084E790E00E94250390916E
S1130120810060E02FEF30E0A901491B5109CA01A9
S11301300E94740581E0809388000895813069F4F9
S113014060E084E790E00E9425038091810060E0F4
S113015090E00E947405109288000895CF93DF9375
S113016000D01F92CDB7DEB719821A821B8282E0BB
S11301708983CE0101960E94A401CE0101960E94BA
S1130180CF0180918200813079F480E00E941005D3
S113019081E00E94100582E08093820060918A00D1
S11301A081E090E00E9474050F900F900F90DF9112
S11301B0CF910895CF9380E8809381008091A2002D
S11301C09091A3000E94FD01C82F81E790E09093D5
S11301D0A3008093A2000E94CF01C82B0E94410279
S11301E0C82B0E945C028C2BCF910895CF938DE491
S11301F0809381008091A2009091A3000E94FD0150
S1130200C82F8EE690E09093A3008093A2000E94F2
S1130210CF01C82B0E944102C82B0E945C028C2B88
S1130220CF910895CF938091A2009091A3000E9452
S1130230FD01C82F88E690E09093A3008093A2006C
S11302400E94CF01C82B0E945002C82B0E945C025E
S11302508C2BCF9108956AE870E081E00E944A05F2
S113026080E00E942D0581E00E942D050E94680215
S113027081E0809382008091A2009091A3000E946B
S1130280FD018BE690E09093A3008093A2000E946E
S1130290CF010895CF9384E790E00E947E02C82F97
S11302A011BA8FEF82BB81E790E00E94A401C82BB2
S11302B08EE690E00E94A401C82B88E690E00E949C
S11302C0A401C82B8BE690E00E94A401C82B84E60D
S11302D090E00E942704C82B80E690E00E94270447
S11302E0C82B0E94FA04C82B66E870E087E00E94DD
S11302F08A05C82B69E470E085E00E948A05C82B52
S113030060E087EE90E00E947405C82B0E94F5041B
S1130310C82B0E942A028C2BCF910895CF938091F1
S1130320A2009091A3000E94FD01C82F8BE690E0EB
S11303309093A3008093A2000E94CF01C82B0E9437
S113034068028C2BCF9108950F931F93CF93DF9363
S11303501F92CDB7DEB7FC0120812430B8F421818F
S11303602830B0F48C01808183702770220F220F13
S1130370282B20622983CE0101960E940D0481114D
S113038003C0F801128205C082E003C081E001C00D
S113039081E00F90DF91CF911F910F9108950F93FA
S11303A01F93CF93DF931F92CDB7DEB7FC018081FB
S11303B08430D0F491819830C8F48F0183709770A1
S11303C0990F990F982B90629064998361E0CE0104
S11303D001960E942503811105C082E0F801828301
S11303E080E005C082E003C081E001C081E00F909D
S11303F0DF91CF911F910F9108950F931F93CF9386
S1130400DF931F92CDB7DEB7FC0180818430C8F43E
S113041091819830C0F48F0183709770990F990F70
S1130420982B9062998360E0CE0101960E94250387
S1130430811105C081E0F801828380E005C082E07B
S113044003C081E001C081E00F90DF91CF911F9143
S11304500F910895CF9385E890E00E940D04C82F72
S113046086E890E00E940D04C82B83E890E00E9487
S11304700D04C82B84E890E00E940D048C2BCF91CE
S11304800895CF9361E085E890E00E942503C82F8A
S113049060E086E890E00E9425038C2BCF910895BC
S11304A060E085E890E00E94250361E086E890E042
S11304B00E94250380E0089561E083E890E00E94B3
S11304C0250360E084E890E00E94250380E008951D
S11304D061E085E890E00E94250361E086E890E011
S11304E00E94250361E083E890E00E94250361E017
S11304F084E890E00E94250380E00895009709F4C1
S1130500A0C0FC01208122230CF49DC0322F337043
S1130510323009F44CC008F06FC0313019F125FDB8
S113052010C03AB326952695277081E090E002C06A
S1130530880F991F2A95E2F7809583238ABB80E070
S113054008953AB3FC01208126952695277081E011
S113055090E002C0880F991F2A95E2F7832B8ABB8B
S113056080E0089525FD12C037B3FC012081269553
S11305702695277081E090E002C0880F991F2A9584
S1130580E2F78095832387BB80E0089537B3FC01AD
S1130590208126952695277081E090E002C0880F7F
S11305A0991F2A95E2F7832B87BB80E0089525FDE8
S11305B012C034B3FC01208126952695277081E072
S11305C090E002C0880F991F2A95E2F78095832353
S11305D084BB80E0089534B3FC01208126952695E0
S11305E0277081E090E002C0880F991F2A95E2F7F6
S11305F0832B84BB80E0089525FD12C031B3FC0138
S1130600208126952695277081E090E002C0880F0E
S1130610991F2A95E2F78095832381BB80E0089592
S113062031B3FC01208126952695277081E090E066
S113063002C0880F991F2A95E2F7832B81BB80E0C3
S1130640089582E0089582E00895009709F4D9C0DE
S1130650DC012C9122230CF4D6C06170237022306B
S113066009F469C008F09AC0213091F14AB32C9181
S1130670269526952770E22F50E0DA0102C0B59541
S1130680A7952A95E2F7A0FFC0C0611111C04BB332
S113069021E030E002C0220F331FEA95E2F72095F3
S11306A024232BBBFC0120812F7B208380E0089531
S11306B04BB321E030E002C0220F331FEA95E2F78A
S11306C0242B2BBBDC012C9120642C9380E0089517
S11306D047B3FC012081269526952770E22F50E030
S11306E0DA0102C0B595A7952A95E2F7A0FF8FC05D
S11306F0611111C048B321E030E002C0220F331F62
S1130700EA95E2F72095242328BBFC0120812F7B66
S1130710208380E0089548B321E030E002C0220F36
S1130720331FEA95E2F7242B28BBDC012C912064CB
S11307302C9380E0089544B3FC01208126952695EE
S11307402770E22F50E0DA0102C0B595A7952A95EB
S1130750E2F7A0FF5EC0611111C045B321E030E0B3
S113076002C0220F331FEA95E2F72095242325BB0C
S1130770FC0120812F7B208380E0089545B321E094
S113078030E002C0220F331FEA95E2F7242B25BB89
S1130790DC012C9120642C9380E0089541B3FC018A
S11307A02081269526952770E22F50E0DA0102C0B9
S11307B0B595A7952A95E2F7A0FF2DC0611111C048
S11307C042B321E030E002C0220F331FEA95E2F782
S11307D02095242322BBFC0120812F7B208380E0F1
S11307E0089542B321E030E002C0220F331FEA959E
S11307F0E2F7242B22BBDC012C9120642C9380E0B3
S1130800089582E0089582E0089581E0089581E0EA
S1130810089581E0089581E00895CF93DF930097D0
S113082081F0FC012081222374F0EC010E947E02FD
S1130830688166FB662760F9CE010E94250380E08B
S113084003C082E001C082E0DF91CF910895CF938D
S1130850009709F472C0FC018381811136C0828142
S1130860811108C085B78E7F85BF85B78D7F85BF11
S1130870C0E01FC0813041F485B7816085BF85B772
S11308808D7F85BFC0E015C0833041F485B781609A
S113089085BF85B7826085BFC0E00BC0823041F45C
S11308A085B78E7F85BF85B7826085BFC0E001C0F4
S11308B0C2E08081918190939100809390008BB7E6
S11308C080648BBF0E94F5043BC08130C1F58281F6
S11308D0811108C085B78B7F85BF85B7877F85BFAA
S11308E0C0E01FC0813041F485B7846085BF85B7FF
S11308F0877F85BFC0E015C0833041F485B784602D
S113090085BF85B7886085BFC0E00BC0823041F4E5
S113091085B78B7F85BF85B7886085BFC0E001C080
S1130920C2E08081918190938F0080938E008BB779
S113093080688BBF0E94F50403C0C1E001C0C2E01F
S11309408C2FCF9108951F920F920FB60F921124FE
S11309502F933F934F935F936F937F938F939F93C3
S1130960AF93BF93EF93FF93E0919000F0919100C8
S1130970309709F00995FF91EF91BF91AF919F9145
S11309808F917F916F915F914F913F912F910F9034
S11309900FBE0F901F9018951F920F920FB60F92D3
S11309A011242F933F934F935F936F937F938F9370
S11309B09F93AF93BF93EF93FF93E0918E00F091D9
S11309C08F00309709F00995FF91EF91BF91AF9196
S11309D09F918F917F916F915F914F913F912F9153
S11309E00F900FBE0F901F9018958FB780688FBF20
S11309F080E0089519BE18BE85E089BF83B713BE91
S1130A0012BE1CBE8FB51FBC8EB51EBC1DBC1CBC4B
S1130A101BBC1ABC19BC18BC17BC16BC80E00895DA
S1130A208330B8F4813049F018F0823069F013C093
S1130A3083B7826083BF80E008951DBC1CBC8EB563
S1130A4083608EBD80E0089585B5876085BD80E0B4
S1130A50089581E0089580E008958330B8F48130EA
S1130A6049F018F0823069F013C083B7887F83BFE0
S1130A7080E008958EB5887F8EBD1DBC1CBC80E0CF
S1130A80089585B5887F85BD80E0089581E0089547
S1130A9080E00895833010F56115710509F1813006
S1130AA059F018F0823099F01DC082B790E0FB0134
S1130AB09183808380E008952CB58DB590E0982FC4
S1130AC08827822BFB019183808380E0089584B57D
S1130AD090E0FB019183808380E0089581E0089594
S1130AE081E0089580E00895633080F4613039F046
S1130AF018F0623041F00CC082BF80E008959DBDC3
S1130B008CBD80E0089584BD80E0089581E008955F
S1130B1080E008956115710561F0883060F4E82F74
S1130B20F0E0EE0FFF1FEE56FF4F7183608380E00D
S1130B30089581E0089581E008951F920F920FB601
S1130B400F9211242F933F934F935F936F937F934F
S1130B508F939F93AF93BF93EF93FF93E091920092
S1130B60F0919300309709F00995FF91EF91BF91AF
S1130B70AF919F918F917F916F915F914F913F9131
S1130B802F910F900FBE0F901F9018951F920F92E8
S1130B900FB60F9211242F933F934F935F936F934C
S1130BA07F938F939F93AF93BF93EF93FF93E091C2
S1130BB09400F0919500309709F00995FF91EF9119
S1130BC0BF91AF919F918F917F916F915F914F9161
S1130BD03F912F910F900FBE0F901F9018951F9269
S1130BE00F920FB60F9211242F933F934F935F935D
S1130BF06F937F938F939F93AF93BF93EF93FF93E1
S1130C00E0919600F0919700309709F00995FF91D3
S1130C10EF91BF91AF919F918F917F916F915F9170
S1130C204F913F912F910F900FBE0F901F901895E9
S1130C301F920F920FB60F9211242F933F934F934D
S1130C405F936F937F938F939F93AF93BF93EF9330
S1130C50FF93E0919800F0919900309709F009957D
S1130C60FF91EF91BF91AF919F918F917F916F9180
S1130C705F914F913F912F910F900FBE0F901F9056
S1130C8018951F920F920FB60F9211242F933F9332
S1130C904F935F936F937F938F939F93AF93BF9380
S1130CA0EF93FF93E0919A00F0919B00309709F045
S1130CB00995FF91EF91BF91AF919F918F917F9192
S1130CC06F915F914F913F912F910F900FBE0F90B5
S1130CD01F9018951F920F920FB60F9211242F9305
S1130CE03F934F935F936F937F938F939F93AF93B0
S1130CF0BF93EF93FF93E0919C00F0919D00309798
S1130D0009F00995FF91EF91BF91AF919F918F9158
S1130D107F916F915F914F913F912F910F900FBEF3
S1130D200F901F9018951F920F920FB60F921124D7
S1130D302F933F934F935F936F937F938F939F93DF
S1130D40AF93BF93EF93FF93E0919E00F0919F00C8
S1130D50309709F00995FF91EF91BF91AF919F9161
S1130D608F917F916F915F914F913F912F910F9050
S1130D700FBE0F901F9018951F920F920FB60F92EF
S1130D8011242F933F934F935F936F937F938F938C
S1130D909F93AF93BF93EF93FF93E091A000F091E3
S1130DA0A100309709F00995FF91EF91BF91AF91A0
S1130DB09F918F917F916F915F914F913F912F916F
S1130DC00F900FBE0F901F9018950E944A018091BA
S1130DD082008111FCCF80918C00813081F0809160
S1130DE08D0090E0FC01EE0FFF1F8E0F9F1FFC0192
S1130DF0EB58FF4F0190F081E02D0995E8CF0E9458
S10B0E008E01E5CFF894FFCF49
S1130E082B010200AE0002010103000102000101EE
S1130E180001000070DA0006120102F60004120153
S10B0E28028001686C606400A3
S9030000FC
