:100000000C942A000C940E050C9437050C944700B0
:100010000C9447000C9447000C9447000C94470044
:100020000C9447000C94F0050C9447000C941906AE
:100030000C9447000C9447000C9447000C94470024
:100040000C9447000C9447000C9447000C94470014
:100050000C94470011241FBECFE5D8E0DEBFCDBF12
:1000600010E0A0E6B0E0E2ECFCE002C005900D92EA
:10007000AC38B107D9F720E0ACE8B0E001C01D9280
:10008000AC39B207E1F70E9442060C945F060C946B
:10009000000061E08BED9BE00E94CB058091860023
:1000A00081112CC020918D002F5F20938D008091B5
:1000B000910090E0FC01EE0FFF1FE80FF91FE758D9
:1000C000FF4F428150E0022E000C330B42175307C2
:1000D00091F42FEF20938D000196837090789923EF
:1000E00024F401978C6F9F6F01968093910081E0BB
:1000F000809390000895109290000895823029F422
:100100008FEF80938D0010928600089580918C006F
:10011000811114C061E088E790E00E949003909103
:10012000850060E02FEF30E0A901491B5109CA01A9
:100130000E94CB0581E080938C000895813069F4A2
:1001400060E088E790E00E9490038091850060E085
:1001500090E00E94CB0510928C000895CF93DF931E
:1001600000D01F92CDB7DEB719821A821B8282E0BF
:100170008983CE0101960E940802CE0101960E9459
:10018000330280918600813079F480E00E947B0503
:1001900081E00E947B0582E08093860060918E0062
:1001A00081E090E00E94CB050F900F900F90DF91BF
:1001B000CF9108956EE870E081E00E94A90580E08B
:1001C0000E94920581E00E9492050E94CC0281E08B
:1001D0008093860080919A0090919B000E9461021A
:1001E0008BE690E090939B0080939A000E943302EC
:1001F0000895CF9380E88093850080919A00909134
:100200009B000E946102C82F81E790E090939B00C1
:1002100080939A000E943302C82B0E94A502C82B2B
:100220000E94C0028C2BCF910895CF938DE48093D0
:10023000850080919A0090919B000E946102C82FD6
:100240008EE690E090939B0080939A000E94330288
:10025000C82B0E94A502C82B0E94C0028C2BCF91F4
:100260000895CF9380919A0090919B000E94610223
:10027000C82F88E690E090939B0080939A000E949C
:100280003302C82B0E94B402C82B0E94C0028C2BE0
:10029000CF910895CF9388E790E00E94E202C82FA3
:1002A00086E790E00E94B501C82B84E790E00E94A9
:1002B000B501C82B86E790E00E94DD01C82B84E7DA
:1002C00090E00E94DD01C82B81E790E00E940802C7
:1002D000C82B8EE690E00E940802C82B88E690E0CA
:1002E0000E940802C82B8BE690E00E940802C82BEF
:1002F00084E690E00E949204C82B80E690E00E9481
:100300009204C82B0E946505C82B66E870E081E066
:100310000E94DD05C82B69E470E080E00E94DD05E5
:10032000C82B60E087EE90E00E94CB05C82B0E94AE
:100330006005C82B0E948E028C2BCF910895CF931D
:1003400080919A0090919B000E946102C82F8BE6D9
:1003500090E090939B0080939A000E943302C82BF8
:100360000E94CC028C2BCF910895CF93DF931F92E4
:10037000CDB7DEB7FC0190819430C0F421812830E4
:10038000B8F4892F837099819C7F982B2770220F56
:10039000220F937E922B9F799F779983CE010196AE
:1003A0000E947804882329F082E003C081E001C024
:1003B00081E00F90DF91CF910895CF93DF931F924B
:1003C000CDB7DEB7FC0190819430D8F481818830BC
:1003D000D0F4937029812C7F292B8770982F990F47
:1003E000990F822F837E892B8F7D80648F778983FD
:1003F00061E0CE0101960E949003882329F082E0FB
:1004000003C081E001C081E00F90DF91CF9108959A
:100410000F931F93CF93DF931F92CDB7DEB7FC01ED
:1004200020812430B8F421812830B0F48C018081FF
:1004300083702770220F220F282B20622983CE0180
:1004400001960E947804811103C0F801128205C050
:1004500082E003C081E001C081E00F90DF91CF9185
:100460001F910F9108950F931F93CF93DF931F92C6
:10047000CDB7DEB7FC0180818430D0F49181983013
:10048000C8F48F0183709770990F990F982B906221
:100490009064998361E0CE0101960E9490038111DE
:1004A00005C082E0F801828380E005C082E003C0DD
:1004B00081E001C081E00F90DF91CF911F910F91FA
:1004C00008950F931F93CF93DF931F92CDB7DEB79D
:1004D000FC0180818430C8F491819830C0F48F0190
:1004E00083709770990F990F982B9062998360E0B1
:1004F000CE0101960E949003811105C081E0F801B0
:10050000828380E005C082E003C081E001C081E019
:100510000F90DF91CF911F910F910895CF9389E8AC
:1005200090E00E947804C82F8AE890E00E94780446
:10053000C82B87E890E00E947804C82B88E890E0F8
:100540000E9478048C2BCF910895CF9361E089E8C5
:1005500090E00E949003C82F60E08AE890E00E943B
:1005600090038C2BCF91089560E089E890E00E9481
:10057000900361E08AE890E00E94900380E0089593
:1005800061E087E890E00E94900360E088E890E0F6
:100590000E94900380E0089561E089E890E00E9465
:1005A000900361E08AE890E00E94900361E087E8B0
:1005B00090E00E94900361E088E890E00E94900340
:1005C00080E00895009709F4A5C0FC012081222352
:1005D0000CF4A2C0322F3370313069F138F0323070
:1005E00009F44EC0333009F470C098C025FD12C024
:1005F0003AB3FC01208126952695277081E090E092
:1006000002C0880F991F2A95E2F7809583238ABB41
:1006100080E008953AB3FC01208126952695277045
:1006200081E090E002C0880F991F2A95E2F7832BA2
:100630008ABB80E0089525FD12C037B3FC012081FC
:1006400026952695277081E090E002C0880F991FBB
:100650002A95E2F78095832387BB80E0089537B31E
:10066000FC01208126952695277081E090E002C04C
:10067000880F991F2A95E2F7832B87BB80E00895A6
:1006800025FD12C034B3FC012081269526952770E4
:1006900081E090E002C0880F991F2A95E2F78095CB
:1006A000832384BB80E0089534B3FC012081269528
:1006B0002695277081E090E002C0880F991F2A9547
:1006C000E2F7832B84BB80E0089525FD12C031B38F
:1006D000FC01208126952695277081E090E002C0DC
:1006E000880F991F2A95E2F78095832381BB80E0CC
:1006F000089531B3FC01208126952695277081E06D
:1007000090E002C0880F991F2A95E2F7832B81BBE6
:1007100080E0089582E0089582E0089582E00895DF
:10072000009709F4D9C0DC012C9122230CF4D6C027
:1007300061702370223009F469C008F09AC021303A
:1007400091F14AB32C91269526952770E22F50E01F
:10075000DA0102C0B595A7952A95E2F7A0FFC0C0BF
:10076000611111C04BB321E030E002C0220F331FF2
:10077000EA95E2F7209524232BBBFC0120812F7BF7
:10078000208380E008954BB321E030E002C0220FC7
:10079000331FEA95E2F7242B2BBBDC012C9120645C
:1007A0002C9380E0089547B3FC012081269526957F
:1007B0002770E22F50E0DA0102C0B595A7952A957F
:1007C000E2F7A0FF8FC0611111C048B321E030E013
:1007D00002C0220F331FEA95E2F72095242328BB9D
:1007E000FC0120812F7B208380E0089548B321E025
:1007F00030E002C0220F331FEA95E2F7242B28BB1A
:10080000DC012C9120642C9380E0089544B3FC011A
:100810002081269526952770E22F50E0DA0102C04C
:10082000B595A7952A95E2F7A0FF5EC0611111C0AA
:1008300045B321E030E002C0220F331FEA95E2F712
:100840002095242325BBFC0120812F7B208380E081
:10085000089545B321E030E002C0220F331FEA952E
:10086000E2F7242B25BBDC012C9120642C9380E043
:10087000089541B3FC012081269526952770E22F2B
:1008800050E0DA0102C0B595A7952A95E2F7A0FFDE
:100890002DC0611111C042B321E030E002C0220F2F
:1008A000331FEA95E2F72095242322BBFC01208127
:1008B0002F7B208380E0089542B321E030E002C026
:1008C000220F331FEA95E2F7242B22BBDC012C9187
:1008D00020642C9380E0089582E0089582E00895DA
:1008E00081E0089581E0089581E0089581E0089510
:1008F000CF93DF93009781F0FC012081222374F0D5
:10090000EC010E94E202688166FB662760F9CE0175
:100910000E94900380E003C082E001C082E0DF918A
:10092000CF910895CF93009709F472C0FC018381A1
:10093000811136C08281811108C085B78E7F85BF45
:1009400085B78D7F85BFC0E01FC0813041F485B77A
:10095000816085BF85B78D7F85BFC0E015C08330BE
:1009600041F485B7816085BF85B7826085BFC0E0EF
:100970000BC0823041F485B78E7F85BF85B782601A
:1009800085BFC0E001C0C2E0808191819093950055
:10099000809394008BB780648BBF0E9460053BC03E
:1009A0008130C1F58281811108C085B78B7F85BFF9
:1009B00085B7877F85BFC0E01FC0813041F485B710
:1009C000846085BF85B7877F85BFC0E015C0833051
:1009D00041F485B7846085BF85B7886085BFC0E076
:1009E0000BC0823041F485B78B7F85BF85B78860A7
:1009F00085BFC0E001C0C2E08081918190939300E7
:100A0000809392008BB780688BBF0E94600503C003
:100A1000C1E001C0C2E08C2FCF9108951F920F92C8
:100A20000FB60F9211242F933F934F935F936F93C1
:100A30007F938F939F93AF93BF93EF93FF93E09137
:100A40009400F0919500309709F00995FF91EF918E
:100A5000BF91AF919F918F917F916F915F914F91D6
:100A60003F912F910F900FBE0F901F9018951F92DE
:100A70000F920FB60F9211242F933F934F935F93D2
:100A80006F937F938F939F93AF93BF93EF93FF9356
:100A9000E0919200F0919300309709F00995FF9151
:100AA000EF91BF91AF919F918F917F916F915F91E6
:100AB0004F913F912F910F900FBE0F901F9018955F
:100AC0008FB780688FBF80E0089519BE18BE85E09B
:100AD00089BF83B713BE12BE1CBE8FB51FBC8EB5B7
:100AE0001EBC1DBC1CBC1BBC1ABC19BC18BC17BC52
:100AF00016BC80E00895833088F4882319F0813093
:100B000031F00EC083B7826083BF80E008951DBCC2
:100B10001CBC8EB583608EBD80E0089581E0089591
:100B200080E00895833088F4882319F0813031F013
:100B30000EC083B7887F83BF80E008958EB5887F1D
:100B40008EBD1DBC1CBC80E0089581E0089580E04E
:100B500008958330D0F461157105C9F0882319F028
:100B6000813041F016C082B790E0FB019183808311
:100B700080E008952CB58DB590E0982F8827822BC2
:100B8000FB019183808380E0089581E0089581E0F6
:100B9000089580E00895633060F4662319F06130B1
:100BA00021F009C082BF80E008959DBD8CBD80E02A
:100BB000089581E0089580E008956115710561F060
:100BC000823060F4E82FF0E0EE0FFF1FEA56FF4F8F
:100BD0007183608380E0089581E0089581E0089545
:100BE0001F920F920FB60F9211242F933F934F93A2
:100BF0005F936F937F938F939F93AF93BF93EF9385
:100C0000FF93E0919600F0919700309709F00995D5
:100C1000FF91EF91BF91AF919F918F917F916F91D4
:100C20005F914F913F912F910F900FBE0F901F90AA
:100C300018951F920F920FB60F9211242F933F9386
:100C40004F935F936F937F938F939F93AF93BF93D4
:100C5000EF93FF93E0919800F0919900309709F09D
:100C60000995FF91EF91BF91AF919F918F917F91E6
:100C70006F915F914F913F912F910F900FBE0F9009
:100C80001F9018950E944A01809186008111FCCF27
:100C900080919000813081F08091910090E0FC0182
:100CA000EE0FFF1F8E0F9F1FFC01E758FF4F0190B3
:100CB000F081E02D0995E8CF0E949F01E5CFF894DF
:020CC000FFCF64
:100CC200DA000200AE00020101030001020001018C
:100CD200000100000302030170F900063101021550
:0C0CE20001043101028001686C606400B4
:00000001FF
