S01700003457442D4361722D537072696E74732E73726563DB
S11300000C942A000C943C000C943C000C943C008E
S11300100C943E000C9467000C9490000C94B9006E
S11300200C94E2000C940B010C9434010C945D01CB
S11300300C943C000C943C000C943C000C943C004C
S11300400C943C000C943C000C943C000C943C003C
S11300500C943C0011241FBECFE5D8E0DEBFCDBF19
S113006020E0A0E6B0E001C01D92A037B207E1F79E
S11300700E9486010C9487010C9400001F920F9239
S11300800FB60F9211242F933F934F935F936F9367
S11300907F938F939F93AF93BF93EF93FF93E091DD
S11300A06000F0916100309709F00995FF91EF919C
S11300B0BF91AF919F918F917F916F915F914F917C
S11300C03F912F910F900FBE0F901F9018951F9284
S11300D00F920FB60F9211242F933F934F935F9378
S11300E06F937F938F939F93AF93BF93EF93FF93FC
S11300F0E0916200F0916300309709F00995FF9157
S1130100EF91BF91AF919F918F917F916F915F918B
S11301104F913F912F910F900FBE0F901F90189504
S11301201F920F920FB60F9211242F933F934F9368
S11301305F936F937F938F939F93AF93BF93EF934B
S1130140FF93E0916400F0916500309709F0099500
S1130150FF91EF91BF91AF919F918F917F916F919B
S11301605F914F913F912F910F900FBE0F901F9071
S113017018951F920F920FB60F9211242F933F934D
S11301804F935F936F937F938F939F93AF93BF939B
S1130190EF93FF93E0916600F0916700309709F0C8
S11301A00995FF91EF91BF91AF919F918F917F91AD
S11301B06F915F914F913F912F910F900FBE0F90D0
S11301C01F9018951F920F920FB60F9211242F9320
S11301D03F934F935F936F937F938F939F93AF93CB
S11301E0BF93EF93FF93E0916800F091690030971B
S11301F009F00995FF91EF91BF91AF919F918F9174
S11302007F916F915F914F913F912F910F900FBE0E
S11302100F901F9018951F920F920FB60F921124F2
S11302202F933F934F935F936F937F938F939F93FA
S1130230AF93BF93EF93FF93E0916A00F0916B004B
S1130240309709F00995FF91EF91BF91AF919F917C
S11302508F917F916F915F914F913F912F910F906B
S11302600FBE0F901F9018951F920F920FB60F920A
S113027011242F933F934F935F936F937F938F93A7
S11302809F93AF93BF93EF93FF93E0916C00F09132
S11302906D00309709F00995FF91EF91BF91AF91EF
S11302A09F918F917F916F915F914F913F912F918A
S11302B00F900FBE0F901F9018951F920F920FB6BC
S11302C00F9211242F933F934F935F936F937F93D8
S11302D08F939F93AF93BF93EF93FF93E0916E003F
S11302E0F0916F00309709F00995FF91EF91BF915C
S11302F0AF919F918F917F916F915F914F913F91BA
S11303002F910F900FBE0F901F901895FFCFF89468
S1050310FFCF19
S9030000FC
