:100000000C942A000C94A4040C94CD040C94470086
:100010000C9447000C9447000C9447000C94470044
:100020000C9447000C9486050C9447000C94AF0583
:100030000C9447000C9447000C9447000C94470024
:100040000C9447000C9447000C9447000C94470014
:100050000C94470011241FBECFE5D8E0DEBFCDBF12
:1000600010E0A0E6B0E0EEEEFBE002C005900D92DD
:10007000A838B107D9F720E0A8E8B0E001C01D9288
:10008000A839B207E1F70E94D8050C94F5050C9445
:10009000000061E08BED9BE00E9461058091820091
:1000A00081112CC0209189002F5F209389008091BD
:1000B0008D0090E0FC01EE0FFF1FE80FF91FEB58D9
:1000C000FF4F428150E0022E000C330B42175307C2
:1000D00091F42FEF209389000196837090789923F3
:1000E00024F401978C6F9F6F019680938D0081E0BF
:1000F00080938C00089510928C000895823029F42A
:100100008FEF80938900109282000895809188007B
:10011000811114C061E084E790E00E942603909171
:10012000810060E02FEF30E0A901491B5109CA01AD
:100130000E94610581E0809388000895813069F410
:1001400060E084E790E00E9426038091810060E0F7
:1001500090E00E946105109288000895CF93DF938C
:1001600000D01F92CDB7DEB719821A821B8282E0BF
:100170008983CE0101960E94A501CE0101960E94BD
:10018000D00180918200813081F461E080918A0009
:1001900090918B000E94610580E00E94110581E032
:1001A0000E94110582E0809382000F900F900F90C3
:1001B000DF91CF910895CF9380E880938100809163
:1001C0009600909197000E94FE01C82F81E790E071
:1001D00090939700809396000E94D001C82B0E94B4
:1001E0004202C82B0E945D028C2BCF910895CF93C1
:1001F0008DE48093810080919600909197000E94F9
:10020000FE01C82F8EE690E09093970080939600B1
:100210000E94D001C82B0E944202C82B0E945D029E
:100220008C2BCF910895CF93809196009091970059
:100230000E94FE01C82F88E690E09093970080937B
:1002400096000E94D001C82B0E945102C82B0E9428
:100250005D028C2BCF9108956AE870E081E00E94E6
:100260003F0580E00E94280581E00E9428050E9449
:10027000690281E0809382008091960090919700BE
:100280000E94FE018BE690E0909397008093960089
:100290000E94D0010895CF9384E790E00E947F02EE
:1002A000C82F11BA8FEF82BB81E790E00E94A501B1
:1002B000C82B8EE690E00E94A501C82B88E690E04E
:1002C0000E94A501C82B8BE690E00E94A501C82BD7
:1002D00084E690E00E942804C82B80E690E00E940B
:1002E0002804C82B0E94FB04C82B66E870E081E05C
:1002F0000E947305C82B69E470E080E00E947305DA
:10030000C82B60E087EE90E00E946105C82B0E9438
:10031000F604C82B0E942B028C2BCF910895CF930B
:1003200080919600909197000E94FE01C82F8BE665
:1003300090E090939700809396000E94D001C82B84
:100340000E9469028C2BCF9108950F931F93CF9336
:10035000DF931F92CDB7DEB7FC0120812430B8F4C3
:1003600021812830B0F48C01808183702770220FA6
:10037000220F282B20622983CE0101960E940E04B1
:10038000811103C0F801128205C082E003C081E040
:1003900001C081E00F90DF91CF911F910F910895DF
:1003A0000F931F93CF93DF931F92CDB7DEB7FC015E
:1003B00080818430D0F491819830C8F48F018370AB
:1003C0009770990F990F982B90629064998361E0D0
:1003D000CE0101960E942603811105C082E0F8013A
:1003E000828380E005C082E003C081E001C081E03B
:1003F0000F90DF91CF911F910F9108950F931F934D
:10040000CF93DF931F92CDB7DEB7FC01808184309C
:10041000C8F491819830C0F48F0183709770990F60
:10042000990F982B9062998360E0CE0101960E940B
:100430002603811105C081E0F801828380E005C0B8
:1004400082E003C081E001C081E00F90DF91CF9195
:100450001F910F910895CF9385E890E00E940E04BC
:10046000C82F86E890E00E940E04C82B83E890E035
:100470000E940E04C82B84E890E00E940E048C2B8E
:10048000CF910895CF9361E085E890E00E94260324
:10049000C82F60E086E890E00E9426038C2BCF9165
:1004A000089560E085E890E00E94260361E086E818
:1004B00090E00E94260380E0089561E083E890E0E8
:1004C0000E94260360E084E890E00E94260380E01A
:1004D000089561E085E890E00E94260361E086E8E7
:1004E00090E00E94260361E083E890E00E942603EA
:1004F00061E084E890E00E94260380E00895009780
:1005000009F4A0C0FC01208122230CF49DC0322FED
:100510003370323009F44CC008F06FC0313019F13B
:1005200025FD10C03AB326952695277081E090E00E
:1005300002C0880F991F2A95E2F7809583238ABB12
:1005400080E008953AB3FC01208126952695277016
:1005500081E090E002C0880F991F2A95E2F7832B73
:100560008ABB80E0089525FD12C037B3FC012081CD
:1005700026952695277081E090E002C0880F991F8C
:100580002A95E2F78095832387BB80E0089537B3EF
:10059000FC01208126952695277081E090E002C01D
:1005A000880F991F2A95E2F7832B87BB80E0089577
:1005B00025FD12C034B3FC012081269526952770B5
:1005C00081E090E002C0880F991F2A95E2F780959C
:1005D000832384BB80E0089534B3FC0120812695F9
:1005E0002695277081E090E002C0880F991F2A9518
:1005F000E2F7832B84BB80E0089525FD12C031B360
:10060000FC01208126952695277081E090E002C0AC
:10061000880F991F2A95E2F78095832381BB80E09C
:10062000089531B3FC01208126952695277081E03D
:1006300090E002C0880F991F2A95E2F7832B81BBB7
:1006400080E0089582E0089582E00895009709F41B
:10065000D9C0DC012C9122230CF4D6C06170237028
:10066000223009F469C008F09AC0213091F14AB3F0
:100670002C91269526952770E22F50E0DA0102C0D2
:10068000B595A7952A95E2F7A0FFC0C0611111C0EA
:100690004BB321E030E002C0220F331FEA95E2F7AE
:1006A000209524232BBBFC0120812F7B208380E01D
:1006B00008954BB321E030E002C0220F331FEA95CA
:1006C000E2F7242B2BBBDC012C9120642C9380E0DF
:1006D000089547B3FC012081269526952770E22FC7
:1006E00050E0DA0102C0B595A7952A95E2F7A0FF80
:1006F0008FC0611111C048B321E030E002C0220F69
:10070000331FEA95E2F72095242328BBFC012081C2
:100710002F7B208380E0089548B321E030E002C0C1
:10072000220F331FEA95E2F7242B28BBDC012C9122
:1007300020642C9380E0089544B3FC012081269529
:1007400026952770E22F50E0DA0102C0B595A795F3
:100750002A95E2F7A0FF5EC0611111C045B321E008
:1007600030E002C0220F331FEA95E2F720952423E0
:1007700025BBFC0120812F7B208380E0089545B3B9
:1007800021E030E002C0220F331FEA95E2F7242B6C
:1007900025BBDC012C9120642C9380E0089541B3AB
:1007A000FC012081269526952770E22F50E0DA0182
:1007B00002C0B595A7952A95E2F7A0FF2DC061115B
:1007C00011C042B321E030E002C0220F331FEA958E
:1007D000E2F72095242322BBFC0120812F7B20837C
:1007E00080E0089542B321E030E002C0220F331FC1
:1007F000EA95E2F7242B22BBDC012C9120642C9398
:1008000080E0089582E0089582E0089581E00895EF
:1008100081E0089581E0089581E00895CF93DF930A
:10082000009781F0FC012081222374F0EC010E94EA
:100830007F02688166FB662760F9CE010E9426036D
:1008400080E003C082E001C082E0DF91CF91089593
:10085000CF93009709F472C0FC018381811136C0E7
:100860008281811108C085B78E7F85BF85B78D7F56
:1008700085BFC0E01FC0813041F485B7816085BF6E
:1008800085B78D7F85BFC0E015C0833041F485B743
:10089000816085BF85B7826085BFC0E00BC08230B4
:1008A00041F485B78E7F85BF85B7826085BFC0E084
:1008B00001C0C2E08081918190939100809390006B
:1008C0008BB780648BBF0E94F6043BC08130C1F5BA
:1008D0008281811108C085B78B7F85BF85B7877FEF
:1008E00085BFC0E01FC0813041F485B7846085BFFB
:1008F00085B7877F85BFC0E015C0833041F485B7D9
:10090000846085BF85B7886085BFC0E00BC082303A
:1009100041F485B78B7F85BF85B7886085BFC0E010
:1009200001C0C2E08081918190938F0080938E00FE
:100930008BB780688BBF0E94F60403C0C1E001C082
:10094000C2E08C2FCF9108951F920F920FB60F9295
:1009500011242F933F934F935F936F937F938F93C4
:100960009F93AF93BF93EF93FF93E0919000F0912B
:100970009100309709F00995FF91EF91BF91AF91E8
:100980009F918F917F916F915F914F913F912F91A7
:100990000F900FBE0F901F9018951F920F920FB6D9
:1009A0000F9211242F933F934F935F936F937F93F5
:1009B0008F939F93AF93BF93EF93FF93E0918E003C
:1009C000F0918F00309709F00995FF91EF91BF9159
:1009D000AF919F918F917F916F915F914F913F91D7
:1009E0002F910F900FBE0F901F9018958FB78068B2
:1009F0008FBF80E0089519BE18BE85E089BF83B718
:100A000013BE12BE1CBE8FB51FBC8EB51EBC1DBC56
:100A10001CBC1BBC1ABC19BC18BC17BC16BC80E0A3
:100A20000895833088F4882319F0813031F00EC0A6
:100A300083B7826083BF80E008951DBC1CBC8EB567
:100A400083608EBD80E0089581E0089580E0089580
:100A5000833088F4882319F0813031F00EC083B7D9
:100A6000887F83BF80E008958EB5887F8EBD1DBCD2
:100A70001CBC80E0089581E0089580E008958330F3
:100A8000D0F461157105C9F0882319F0813041F067
:100A900016C082B790E0FB019183808380E00895C7
:100AA0002CB58DB590E0982F8827822BFB01918380
:100AB000808380E0089581E0089581E0089580E0DA
:100AC0000895633060F4662319F0613021F009C0A5
:100AD00082BF80E008959DBD8CBD80E0089581E0D7
:100AE000089580E008956115710561F0823060F429
:100AF000E82FF0E0EE0FFF1FEE56FF4F718360838B
:100B000080E0089581E0089581E008951F920F929A
:100B10000FB60F9211242F933F934F935F936F93D0
:100B20007F938F939F93AF93BF93EF93FF93E09146
:100B30009200F0919300309709F00995FF91EF91A1
:100B4000BF91AF919F918F917F916F915F914F91E5
:100B50003F912F910F900FBE0F901F9018951F92ED
:100B60000F920FB60F9211242F933F934F935F93E1
:100B70006F937F938F939F93AF93BF93EF93FF9365
:100B8000E0919400F0919500309709F00995FF915C
:100B9000EF91BF91AF919F918F917F916F915F91F5
:100BA0004F913F912F910F900FBE0F901F9018956E
:100BB0000E944B01809182008111FCCF80918C00BA
:100BC000813081F080918D0090E0FC01EE0FFF1FDD
:100BD0008E0F9F1FFC01EB58FF4F0190F081E02D1D
:0E0BE0000995E8CF0E948F01E5CFF894FFCF72
:100BEE002C010200AE00020101030001020001010E
:100BFE000001000070DB0006130102F70004130170
:080C0E00028001686C606400C3
:00000001FF
